{
  "contractName": "Calculator",
  "abi": [
    {
      "constant": false,
      "inputs": [
        {
          "name": "num",
          "type": "uint256"
        }
      ],
      "name": "addToNumber",
      "outputs": [],
      "payable": false,
      "type": "function",
      "stateMutability": "nonpayable"
    },
    {
      "constant": false,
      "inputs": [
        {
          "name": "num",
          "type": "uint256"
        }
      ],
      "name": "divideWithNumber",
      "outputs": [],
      "payable": false,
      "type": "function",
      "stateMutability": "nonpayable"
    },
    {
      "constant": false,
      "inputs": [
        {
          "name": "num",
          "type": "uint256"
        }
      ],
      "name": "subtractFromNumber",
      "outputs": [],
      "payable": false,
      "type": "function",
      "stateMutability": "nonpayable"
    },
    {
      "constant": false,
      "inputs": [
        {
          "name": "num",
          "type": "uint256"
        }
      ],
      "name": "multiplyWithNumber",
      "outputs": [],
      "payable": false,
      "type": "function",
      "stateMutability": "nonpayable"
    },
    {
      "constant": true,
      "inputs": [],
      "name": "getResult",
      "outputs": [
        {
          "name": "",
          "type": "uint256"
        }
      ],
      "payable": false,
      "type": "function",
      "stateMutability": "view"
    },
    {
      "inputs": [
        {
          "name": "initial",
          "type": "uint256"
        }
      ],
      "payable": false,
      "type": "constructor",
      "stateMutability": "nonpayable"
    }
  ],
  "bytecode": "0x6060604052341561000f57600080fd5b6040516020806101df83398101604052808051906020019091905050806000819055505061019d806100426000396000f30060606040526004361061006d576000357c0100000000000000000000000000000000000000000000000000000000900463ffffffff16806306ccd2301461007257806333579b3314610095578063a9401603146100b8578063b4679b06146100db578063de292789146100fe575b600080fd5b341561007d57600080fd5b6100936004808035906020019091905050610127565b005b34156100a057600080fd5b6100b66004808035906020019091905050610135565b005b34156100c357600080fd5b6100d9600480803590602001909190505061014c565b005b34156100e657600080fd5b6100fc600480803590602001909190505061015a565b005b341561010957600080fd5b610111610168565b6040518082815260200191505060405180910390f35b806000540160008190555050565b8060005481151561014257fe5b0460008190555050565b806000540360008190555050565b806000540260008190555050565b600080549050905600a165627a7a723058206f27f39c0c320be324048f73a0fd2532c226d130d0ad914c929ac0826fab6df70029",
  "source": "pragma solidity ^0.4.4;\ncontract Calculator {\n\nuint result;\n\nfunction Calculator(uint initial) {\n\nresult = initial;\n\n}\n\nfunction getResult()constant returns (uint) {\n\nreturn result;\n}\n\nfunction addToNumber(uint num) {\n\nresult = result + num;\n\n\n}\n\nfunction subtractFromNumber(uint num) {\n\nresult = result - num;\n\n}\n\nfunction multiplyWithNumber(uint num) {\n\nresult = result * num;\n\n}\n\nfunction divideWithNumber(uint num) {\n\nresult = result / num;\n\n}\n\n}\n",
  "sourcePath": "/var/www/html/mobileshop/contracts/Calculator.sol",
  "compiler": {
    "name": "solc",
    "version": "0.4.18+commit.9cf6e910.Emscripten.clang"
  },
  "schemaVersion": "1.0.1",
  "updatedAt": "2017-11-21T05:08:36.771Z"
}